:100000000C9430010C944D010C944D010C944D0155
:100010000C944D010C944D010C944D010C944D0128
:100020000C944D010C944D010C944D010C94D30291
:100030000C94F4020C944D010C944D010C944D0160
:100040000C944D010C944D010C944D010C944D01F8
:100050000C944D010C944D010C944D010C944D01E8
:100060000C944D010C944D010C944D010C944D01D8
:100070000C944D010C944D010C944D010C944D01C8
:100080000C944D010C944D010C944D010C944D01B8
:100090000C944D010C944D0100010000D70012009A
:1000A000020000E9002200210000FB0009002200FC
:1000B000000B01E400030000EF010401030904F355
:1000C0000148020309043D022001C1320000002161
:1000D000260107000000001201100100000040C4CA
:1000E00010C1820001010200010902220001010089
:1000F0008032090400000103000000092111010001
:100100000122E4000705810340000A05010905A159
:100110000185011500250135004501750195200572
:100120000919012920810205012507463B017504B3
:10013000950165140939814265009501810126FF09
:100140000046FF0009300931093209330934093505
:100150007508950681020600FF0920092109220978
:1001600023092409250926092709280929092A0913
:100170002B950C81020A21269508B102C0050109C0
:1001800005A1018502150025013500450175019580
:1001900020050919012920810205012507463B0197
:1001A0007504950165140939814265009501810145
:1001B00026FF0046FF0009300931093209330934AE
:1001C00009357508950681020600FF0920092109F5
:1001D00022092309240925092609270928092909AB
:1001E0002A092B950C81020A21269508B102C00428
:1001F00003090448034F00700065006E0043006867
:10020000006F007200640020005800200052004D72
:100210000049005400200045007800650072007419
:100220000069006F006E002000470061006D0065EE
:1002300000730020004C00610062000000200355A4
:10024000006E006F004A006F00790020004A006FC6
:1002500000790073007400690063006B0000000007
:1002600011241FBECFEFD2E0DEBFCDBF11E0A0E072
:10027000B1E0E8EDF9E002C005900D92A230B107BF
:10028000D9F711E0A2E0B1E001C01D92AC31B10795
:10029000E1F70E9422040C94EA040C940000CF922F
:1002A000EF92FF920F931F93CF93DF93CDB7DEB7FB
:1002B0002C970FB6F894DEBF0FBECDBF1A821B82FB
:1002C0001C821D8280E88F83888789878A878B8735
:1002D0008C87E980FF2400E010E020E03E8140E8C8
:1002E00050E860E870E890E8CC240E943F02E98082
:1002F000FA800B811C812D813E814F815885698553
:100300007A858B859C85CC24C3940E943F022C96D1
:100310000FB6F894DEBF0FBECDBFDF91CF911F9116
:100320000F91FF90EF90CF9008959093CD00809320
:10033000CC0088E18093C90086E08093CA000895CC
:1003400008C0EFE9FFE03197F1F700C00000019726
:1003500039F02091C80027FFF4CF8091CE00089596
:1003600080E008959091C80095FFFCCF8093CE0067
:10037000089502C08091CE008091C80087FDFACF19
:1003800008959AB121E030E002C0220F331F8A9510
:10039000E2F7922B9AB98BB1209528232BB90895B7
:1003A0009AB121E030E002C0220F331F8A95E2F7B4
:1003B000822F809589238AB98BB1822B8BB90895BE
:1003C0008091E80080FFFCCF089580EA8093D800F8
:1003D00086E089BD80E090E00BC0EFE9FFE0319757
:1003E000F1F700C000000196F3E0883E9F0781F01E
:1003F00009B400FEF2CF80E88093D8001092E000AC
:10040000109202018CE08093E200789480E00895DD
:1004100081E008958091020108958091020188236E
:1004200051F18FB7F89491E09093E9009091E40036
:100430009E5C21E03091E80035FF04C0E4E0F1E08B
:1004400098E10EC08FBF809102018823A1F08091B6
:10045000E400891791F08FB7F8942093E900EACF70
:1004600021912093F1009150D9F79AE39093E800FD
:100470008FBF80E008958FEF08958FEF0895CF929A
:10048000EF92FF920F931F93CF93DF93CDB7DEB719
:100490002C970FB6F894DEBF0FBECDBFE982FA826B
:1004A0000B831C832D83232F3E834F8358876987BB
:1004B0007A878B879C87C09204018A819B81AC815B
:1004C000BD818093050190930601A0930701B0932D
:1004D000080188E080930901832F817031FF0DC0EE
:1004E000882311F087E003C032FF04C081E08093CD
:1004F000090119C01092090116C033FF0AC08823F0
:1005000011F085E009C032FF02C083E005C084E03D
:1005100003C0882321F086E08093090141C032FFA7
:100520003FC082E0F9CF8FEF8093100122FF04C01B
:100530008FEF8093110102C01092110123FF04C0BC
:100540008FEF8093120102C01092120120FF04C0AD
:100550008FEF8093130102C0109213018F8180935B
:100560000A01888580930B01898580930C018A8517
:1005700080930D018B8580930E018C8580930F01F4
:100580000E940D022C960FB6F894DEBF0FBECDBFB1
:10059000DF91CF911F910F91FF90EF90CF90089531
:1005A00010921001C3CF1F920F920FB60F92112419
:1005B0008F938091E1001092E10083FF0FC01092B1
:1005C000E90081E08093EB001092EC0082E38093DD
:1005D000ED0088E08093F000109202018F910F905F
:1005E0000FBE0F901F9018951F920F920FB60F928B
:1005F00011241F932F933F934F935F936F937F9398
:100600008F939F93AF93BF93CF93DF93EF93FF931A
:100610001092E9008091E80083FFFDC03091F10065
:100620002091F100C091F100D0E04091F100942FB1
:1006300080E0C82BD92B6091F10070E04091F1006F
:10064000942F80E0682B792BA091F1001091F1009C
:1006500082EF8093E800263009F051C047E028E996
:1006600030E0F901859194918C179D0739F4F901D7
:100670003296859194918617970729F0295F3F4F0D
:10068000415079F7C8C0F901349685919491AC0135
:100690002A5F3F4FF9012491B0E0912F80E0A82B11
:1006A000B92BAF3FB10519F010F0AFEFB0E0A217D2
:1006B00008F42A2FAEEF8091E80090E0BC0165704D
:1006C000707061157105B9F382FDA8C0322F213415
:1006D00008F030E4CA01632F06C0FC010196E491E2
:1006E000E093F10061506623C1F7430F511D231BB6
:1006F000A093E8002223F9F63034E9F28FC02530C8
:1007000049F48EEF8093E8000E94E001C068C09336
:10071000E30084C0293069F5332309F03CC0C0935D
:1007200002018EEF8093E80041E089EC90E001C087
:10073000C9014093E9009C012F5F3F4FFC01549198
:100740005093EB00552361F0F90124912093EC00C4
:100750009C012D5F3F4F0296FC0184918093ED0038
:100760004F5F453029F78EE18093EA001092EA004E
:1007700055C0283039F4303871F40E94E00180917E
:1007800002012DC0222339F40E94E0011092F100F1
:100790001092F1003CC06115710509F03CC0313A7E
:1007A00009F5213079F40E94E00180E090E0FC013D
:1007B000E153FF4FE491E093F100019688309105F9
:1007C000B1F725C0223029F40E94E0018091030195
:1007D00006C0233001F50E94E00180910001809362
:1007E000F10015C03132B9F4293041F48091E800AC
:1007F00082FFFCCF8BEF8093E80009C02A3019F408
:10080000D093030104C02B3031F4C09300018EEF6C
:100810008093E80003C081E28093EB00FF91EF91A9
:10082000DF91CF91BF91AF919F918F917F916F9108
:100830005F914F913F912F911F910F900FBE0F909D
:100840001F901895CF93DF93CDB7DEB72C970FB6D7
:10085000F894DEBF0FBECDBFA89584B7877F84BF55
:1008600088E10FB6F89480936000109260000FBE8C
:1008700089E190E00E94950180E8809361001092E8
:1008800061000E94E50118C085E00E94C1018FEF60
:1008900090E7A2E081509040A040E1F700C0000046
:1008A00085E00E94D0018FEF90E7A2E08150904058
:1008B000A040E1F700C000000E940A02882321F353
:1008C0008FEF99E6A8E181509040A040E1F700C089
:1008D0000000AFE3BCE91197F1F700C0000085E02C
:1008E0000E94C1010E94B9011B821C8280E00E940B
:1008F000B20189E190E00E94A0018A8381E00E9418
:10090000B20189E190E00E94A0018E8382E00E9402
:10091000B20189E190E00E94A0018D8383E00E94F2
:10092000B20189E190E00E94A0018F8384E00E94DF
:10093000B20189E190E00E94A001888785E00E94D1
:10094000B20189E190E00E94A001898786E00E94BF
:10095000B20189E190E00E94A0018A8785E00E94AF
:10096000B20189E190E00E94A0018B8786E00E949D
:10097000B20189E190E00E94A0018C8785E00E948D
:10098000D0013E81307F3E83E980FA800B811C815B
:100990002D814F81588569857A858B859C85CC24EE
:1009A000C3940E943F028FE39CE90197F1F700C0D6
:1009B0000000E980FA800B811C812D813E814F81EE
:1009C000588569857A858B859C85E2E0CE2E0E94CC
:0809D0003F027FCFF894FFCF36
:0209D80001001C
:00000001FF
