:100000000C9438010C9455010C9455010C94550135
:100010000C9455010C9455010C9455010C94550108
:100020000C9455010C9455010C9455010C94B90293
:100030000C94DA020C9455010C9455010C94550162
:100040000C9455010C9455010C9455010C945501D8
:100050000C9455010C9455010C9455010C945501C8
:100060000C9455010C9455010C9455010C945501B8
:100070000C9455010C9455010C9455010C945501A8
:100080000C9455010C9455010C9455010C94550198
:100090000C9455010C94550100010000D70012008A
:1000A000020000E9002200210000FB0009002200FC
:1000B000000B01F400030000FF0104010309040325
:1000C0000248020309044D022001C1320000002150
:1000D000260107000000001201100100000040C4CA
:1000E00010C1820001010200010902220001010089
:1000F0008032090400000103000000092111010001
:100100000122F4000705810340000A05010905A149
:100110000185011500250135004501750195200572
:100120000919012920810205012507463B017504B3
:100130009501651409398142650095018101160018
:100140000026FF0336000046FF030930093109325B
:100150000933093409357510950681020600FF0937
:10016000200921092209230924092509260927092B
:10017000280929092A092B7508950C81020A2126CC
:100180009508B102C005010905A1018502150025E8
:1001900001350045017501952005091901292081C6
:1001A0000205012507463B017504950165140939CF
:1001B000814265009501810116000026FF0336008B
:1001C0000046FF0309300931093209330934093582
:1001D0007510950681020600FF09200921092209F0
:1001E00023092409250926092709280929092A0993
:1001F0002B7508950C81020A21269508B102C004CE
:1002000003090448034F00700065006E0043006856
:10021000006F007200640020005800200052004D62
:100220000049005400200045007800650072007409
:100230000069006F006E002000470061006D0065DE
:1002400000730020004C0061006200000020035594
:10025000006E006F004A006F00790020004A006FB6
:1002600000790073007400690063006B00000000F7
:1002700011241FBECFEFD2E0DEBFCDBF11E0A0E062
:10028000B1E0E0EDF9E002C005900D92A230B107B7
:10029000D9F711E0A2E0B1E001C01D92A232B1078E
:1002A000E1F70E9408040C94E6040C940000089501
:1002B0009093CD008093CC0088E18093C90086E0C4
:1002C0008093CA00089508C0EFE9FFE03197F1F785
:1002D00000C00000019739F02091C80027FFF4CF3B
:1002E0008091CE00089580E008959091C80095FF18
:1002F000FCCF8093CE00089502C08091CE00809103
:10030000C80087FDFACF08959AB121E030E002C01D
:10031000220F331F8A95E2F7922B9AB98BB1209561
:1003200028232BB908959AB121E030E002C0220FB2
:10033000331F8A95E2F7822F809589238AB98BB182
:10034000822B8BB908958091E80080FFFCCF08953F
:1003500080EA8093D80086E089BD80E090E00BC001
:10036000EFE9FFE03197F1F700C000000196F3E0FC
:10037000883E9F0781F009B400FEF2CF80E88093A9
:10038000D8001092E000109202018CE08093E2000D
:10039000789480E0089581E00895809102010895A5
:1003A00080910201882351F18FB7F89491E09093E6
:1003B000E9009091E4009E5C21E03091E80035FF77
:1003C00004C0E4E0F1E09EE10EC08FBF8091020125
:1003D0008823A1F08091E400891791F08FB7F894F9
:1003E0002093E900EACF21912093F1009150D9F7B1
:1003F0009AE39093E8008FBF80E008958FEF08950F
:100400008FEF08958F929F92AF92BF92CF92DF921B
:10041000EF92FF920F931F93CF93DF93CDB7DEB789
:1004200062970FB6F894DEBF0FBECDBF89829A8265
:10043000AB82BC82CD82ED2DDE82EF82F886098709
:100440001A872B873C874D875E876F87788B898BD0
:100450009A8B89A1809304018A819B81AC81BD81A3
:100460008093050190930601A0930701B0930801C2
:1004700088E0809309018D2D8170D1FE0DC0882305
:1004800011F087E003C0D2FE04C081E0809309012F
:1004900019C01092090116C0D3FE0AC0882311F0BA
:1004A00085E009C0D2FE02C083E005C084E003C03D
:1004B000882321F086E08093090158C0D2FE56C0FF
:1004C00082E0F9CF8FEF80931601E2FF04C08FEF37
:1004D0008093170102C010921701E3FF04C08FEF51
:1004E0008093180102C010921801E0FF04C08FEF42
:1004F0008093190102C0109219018F819885909301
:100500000B0180930A0189859A8590930D01809350
:100510000C018B859C8590930F0180930E018D8536
:100520009E8590931101809310018F8598899093F7
:1005300013018093120189899A8990931501809300
:1005400014010E94D00162960FB6F894DEBF0FBE70
:10055000CDBFDF91CF911F910F91FF90EF90DF9072
:10056000CF90BF90AF909F908F90089510921601FA
:10057000ACCF1F920F920FB60F9211248F938091E0
:10058000E1001092E10083FF0FC01092E90081E0CA
:100590008093EB001092EC0082E38093ED0088E002
:1005A0008093F000109202018F910F900FBE0F9078
:1005B0001F9018951F920F920FB60F9211241F9340
:1005C0002F933F934F935F936F937F938F939F935B
:1005D000AF93BF93CF93DF93EF93FF931092E90014
:1005E0008091E80083FFFDC03091F1002091F1007F
:1005F000C091F100D0E04091F100942F80E0C82B31
:10060000D92B6091F10070E04091F100942F80E0CF
:10061000682B792BA091F1001091F10082EF80936B
:10062000E800263009F051C047E028E930E0F90140
:10063000859194918C179D0739F4F9013296859133
:1006400094918617970729F0295F3F4F415079F71A
:10065000C8C0F901349685919491AC012A5F3F4F4F
:10066000F9012491B0E0912F80E0A82BB92BAF3F86
:10067000B10519F010F0AFEFB0E0A21708F42A2F7F
:10068000AEEF8091E80090E0BC016570707061157C
:100690007105B9F382FDA8C0322F213408F030E48F
:1006A000CA01632F06C0FC010196E491E093F100BA
:1006B00061506623C1F7430F511D231BA093E8002F
:1006C0002223F9F63034E9F28FC0253049F48EEF59
:1006D0008093E8000E94A301C068C093E30084C037
:1006E000293069F5332309F03CC0C09302018EEF35
:1006F0008093E80041E089EC90E001C0C90140939B
:10070000E9009C012F5F3F4FFC0154915093EB0097
:10071000552361F0F90124912093EC009C012D5F99
:100720003F4F0296FC0184918093ED004F5F45306E
:1007300029F78EE18093EA001092EA0055C0283034
:1007400039F4303871F40E94A301809102012DC068
:10075000222339F40E94A3011092F1001092F100BB
:100760003CC06115710509F03CC0313A09F52130F2
:1007700079F40E94A30180E090E0FC01E153FF4F77
:10078000E491E093F100019688309105B1F725C01E
:10079000223029F40E94A3018091030106C0233076
:1007A00001F50E94A301809100018093F10015C022
:1007B0003132B9F4293041F48091E80082FFFCCF56
:1007C0008BEF8093E80009C02A3019F4D09303011D
:1007D00004C02B3031F4C09300018EEF8093E80009
:1007E00003C081E28093EB00FF91EF91DF91CF9105
:1007F000BF91AF919F918F917F916F915F914F9139
:100800003F912F911F910F900FBE0F901F90189541
:10081000CF93DF93CDB7DEB763970FB6F894DEBF03
:100820000FBECDBFA89584B7877F84BF88E10FB680
:10083000F89480936000109260000FBE89E190E010
:100840000E94580180E880936100109261000E942C
:10085000A80118C085E00E9484018FEF90E7A2E014
:1008600081509040A040E1F700C0000085E00E9468
:1008700093018FEF90E7A2E081509040A040E1F714
:1008800000C000000E94CD01882321F38FEF99E67C
:10089000A8E181509040A040E1F700C0000077241B
:1008A000739482E0682EAFE3BCE91197F1F700C0C2
:1008B000000085E00E9484010E947C018E010E5F91
:1008C0001F4F20E0822F2B8B0E94750189E190E061
:1008D0000E946301F80181938F012B892F5F2430DF
:1008E00089F783E00E94750189E190E00E9463012D
:1008F0008F83188684E00E94750189E190E00E9450
:10090000630189871A8685E00E94750189E190E07C
:100910000E9463018B871C8686E00E94750189E135
:1009200090E00E9463018D871E8685E00E9475011C
:1009300089E190E00E9463018F87188A86E00E9417
:10094000750189E190E00E946301898B1A8A85E034
:100950000E9493018E81807F8E830F92ADB7BEB7C8
:1009600011967C9289809A80AB80BC80CD80DE809D
:10097000EF80F88409851A852B853C854D855E8539
:100980006F85788989899A890E940202EFE3FCE9E0
:100990003197F1F700C00000ADB7BEB711966C9269
:1009A00089809A80AB80BC80CD80DE80EF80F88427
:1009B00009851A852B853C854D855E856F857889EF
:1009C00089899A890E9402020F906DCFF894FFCF17
:0209D000010024
:00000001FF
